:100000000C9403010C942E010C942E010C942E01DF
:100010000C942E010C942E010C942E010C942E01A4
:100020000C942E010C942E010C942E010C942E0194
:100030000C942E010C942E010C942E010C942E0184
:100040000C942E010C942E010C942E010C942E0174
:100050000C942E010C942E010C942E010C94600330
:100060000C942E010C942E010C942E010C942E0154
:100070000C942E010C942E010C942E010C942E0144
:100080000C942E010C942E010C942E010C942E0134
:100090000C942E010C942E010C942E010C942E0124
:1000A0000C942E010C942E010C942E010C942E0114
:1000B0000C942E010C942E010C942E010C942E0104
:1000C0000C942E010C942E010C942E010C942E01F4
:1000D0000C942E010C942E010C942E010C942E01E4
:1000E0000C942E0100002100240027002A002D007E
:1000F0003000330001010000040107010A01000083
:100100002200250028002B002E00310034000201BF
:100110000000050108010B0100002000230026005B
:1001200029002C002F00320000010000030106010D
:10013000090105050505070508080808020202026D
:100140000A0A080804040404010101010101010173
:100150000303030303030303040707070C0C0C0C3E
:100160000C0C0C0C02020202060606060606060627
:100170000B0B0B0B0B0B0B0B0102102020080810B4
:100180002040102040800201020108040201010207
:1001900004081020408080402010080402018004E0
:1001A000020180402010080402010804020101023B
:1001B0000408102040800102040810204080000044
:1001C000090A02080B0C0D070603040100000000D9
:1001D000000000000000000000000000000000001F
:1001E0000000000000000000000011100F000000DF
:1001F00000000000000000000000000000000000FF
:1002000000000000200311241FBECFEFD1E2DEBFAB
:10021000CDBF12E0A0E0B2E0E8E3FCE000E00BBFFD
:1002200002C007900D92AE31B107D9F71BBE12E0A4
:10023000AEE1B2E001C01D92AC33B107E1F712E0CC
:10024000C6E0D2E004C02297FE010E941606C43028
:10025000D107C9F70E9408050C941A060C940000F7
:100260000F931F938C01FC01868160E00E94D504EE
:1002700081E090E00E94B603F801868161E00E946F
:10028000D50481E090E00E94B603F801868160E029
:100290000E94D50484E690E00E94B6031F910F915E
:1002A0000895CF92DF92EF92FF920F931F93CF9317
:1002B000DF93D82EC92E282F392FC9018C01C0E019
:1002C000D0E0E62EFF24F801878161E00E9422043D
:1002D000B7010C2E02C0759567950A94E2F761701C
:1002E000F80187810E94D50421960F5F1F4FC83007
:1002F000D10549F78D2D9C2D0E943001DF91CF91C2
:100300001F910F91FF90EF90DF90CF900895CF92C3
:10031000DF92EF92FF920F931F93CF93DF93D82E2C
:10032000C92E282F392FC9018C01C0E0D0E0E62E5C
:10033000FF24F801878161E00E942204B7010C2E9E
:1003400002C0759567950A94E2F76170F80187819C
:100350000E94D50421960F5F1F4FC430D10549F785
:100360008D2D9C2D0E943001DF91CF911F910F9117
:10037000FF90EF90DF90CF9008951F93CF93DF937E
:10038000EC01162F8C81642F0E94D5048D818F3F44
:1003900019F060E00E94D5048F8584FF05C0CE016E
:1003A000612F0E9451010EC0612F70E084E07595AD
:1003B00067958A95E1F7CE010E948701CE01612FF2
:1003C0000E948701DF91CF911F91089541E00E9423
:1003D000BD0181E090E0089540E00E94BD010895D4
:1003E000FC016089862F8460808B6C60CF010E9445
:1003F000EC010895DF93CF93CDB7DEB728970FB602
:10040000F894DEBF0FBECDBF9C01FE013196A6E180
:10041000B2E088E00D9001928150E1F7F901838903
:10042000481710F0482F4150E42FF0E0EE0FFF1F67
:10043000EC0FFD1F8181680F6068C9010E94EC010B
:1004400028960FB6F894DEBF0FBECDBFCF91DF91D7
:10045000089561E00E94EC0180ED97E00E94B603F0
:100460000895CF93DF93EC01423018F08F858860B8
:100470008F874B8B1C8A222329F0413019F48F85FA
:1004800084608F8780E593EC0E94B6038C8160E0E6
:100490000E94D5048E8160E00E94D5048D818F3F3B
:1004A00019F060E00E94D5046F8564FD1DC0CE0187
:1004B00063E00E94870184E991E10E94B603CE01C6
:1004C00063E00E94870184E991E10E94B603CE01B6
:1004D00063E00E94870186E990E00E94B603CE01A6
:1004E00062E00E94870116C06062CE010E94EC01AA
:1004F00084E991E10E94B6036F856062CE010E949B
:10050000EC0186E990E00E94B6036F856062CE013F
:100510000E94EC016F856062CE010E94EC0184E0D4
:10052000888BCE010E94F001CE010E94290282E058
:10053000898BCE0166E00E94EC01DF91CF91089596
:100540006F927F928F92AF92CF92EF920F931F9301
:10055000DF93CF93CDB7DEB73C01162F842FF30185
:10056000448325830683E782C086A18682869D8593
:1005700093879E8594879F8595879889968761E064
:100580000E942204F30185818F3F19F061E00E94EF
:100590002204F301868161E00E942204112319F0F4
:1005A000F301178603C080E1F3018787C30160E18F
:1005B00041E020E00E943102CF91DF911F910F9125
:1005C000EF90CF90AF908F907F906F9008958F9223
:1005D000AF92CF92EF920F931F93CF93DF93DC01F3
:1005E000362F542F722F102FAE2C8C2C13961C925A
:1005F0001E92129782E192E011969C938E9300D006
:1006000000D0EDB7FEB73196CDB7DEB719821182B3
:1006100012821382CD0161E0432F2FEF052FE72EC9
:10062000C12E0E94A0020F900F900F900F90DF91AB
:10063000CF911F910F91EF90CF90AF908F90089531
:10064000CF92EF920F938EE192E069E048E02AE0CA
:100650000BE05CE0E52E3DE0C32E0E94E7020F9127
:10066000EF90CF9008950F931F930EE112E0C80111
:1006700060E041E00E94FA010E94A80328EE33E006
:1006800040E050E00E94F205C801BA01A9012AE049
:1006900030E00E94C1051F910F9108950F931F93A1
:1006A0000EE112E0C80160E142E020E00E94310268
:1006B000C80160E072E00E94D0051F910F9108957B
:1006C0001F920F920FB60F9211242F933F938F9387
:1006D0009F93AF93BF938091370290913802A0917E
:1006E0003902B0913A0230913B020196A11DB11D31
:1006F000232F2D5F2D3720F02D570196A11DB11D01
:1007000020933B028093370290933802A0933902E2
:10071000B0933A028091330290913402A091350255
:10072000B09136020196A11DB11D809333029093C2
:100730003402A0933502B0933602BF91AF919F91DE
:100740008F913F912F910F900FBE0F901F90189592
:100750008FB7F894209137023091380240913902D6
:1007600050913A028FBFB901CA010895019739F03B
:10077000880F991F880F991F02970197F1F7089525
:10078000789484B5826084BD84B5816084BD85B56C
:10079000826085BD85B5816085BDEEE6F0E0808133
:1007A00081608083E1E8F0E0108280818260808354
:1007B000808181608083E0E8F0E0808181608083D7
:1007C000E1EBF0E0808184608083E0EBF0E0808109
:1007D00081608083E1E9F0E08081826080838081B4
:1007E00081608083E0E9F0E0808181608083E1EADC
:1007F000F0E0808182608083808181608083E0EA94
:10080000F0E0808181608083E1E2F1E080818260BC
:100810008083808181608083E0E2F1E0808181607B
:100820008083EAE7F0E08081846080838081826059
:100830008083808181608083808180688083109242
:10084000C1000895CF93DF93482F50E0CA01885824
:100850009E4FFC0134914E5C5E4FFA0184918823D7
:1008600069F190E0880F991FFC01EC51FF4FA591B1
:10087000B491FC01E250FF4FC591D491662351F42D
:100880002FB7F8948C91932F909589238C9388811E
:1008900089230BC0623061F42FB7F8948C91932FA9
:1008A000909589238C938881832B88832FBF06C0E2
:1008B0009FB7F8948C91832B8C939FBFDF91CF913E
:1008C0000895893009F449C08A30A0F4843051F188
:1008D000853040F4823079F1833000F5813009F0C1
:1008E00063C026C0873079F1883098F5863009F0EA
:1008F0005BC025C08D3009F442C08E3028F48B30A7
:10090000B1F18C30C0F52DC0803109F442C0813185
:1009100009F445C08F3009F047C037C0809180008E
:100920008F7703C0809180008F7D80938000089531
:1009300084B58F7702C084B58F7D84BD0895809182
:10094000B0008F7703C08091B0008F7D8093B0009E
:100950000895809190008F7707C0809190008F7DDF
:1009600003C080919000877F8093900008958091CC
:10097000A0008F7707C08091A0008F7D03C0809179
:10098000A000877F8093A0000895809120018F7739
:1009900003C0809120018F7D809320010895809174
:1009A0002001877F809320010895FF920F931F936A
:1009B000F62E482F50E0CA0182549E4FFC0124912C
:1009C000CA0188589E4FFC0114914E5C5E4FFA019B
:1009D00004910023C9F0222319F0822F0E946104A0
:1009E000E02FF0E0EE0FFF1FE250FF4FA591B49112
:1009F0009FB7F894FF2021F48C911095812302C0B9
:100A00008C91812B8C939FBF1F910F91FF90089524
:100A1000CF93DF930E94C0030E944E03C0E0D0E05A
:100A20000E9433032097E1F30E940000F9CFCF9298
:100A3000DF92EF92FF920F931F93CF93DF937C018E
:100A40006B018A01C0E0D0E00FC0D6016D916D014D
:100A5000D701ED91FC910190F081E02DC70109953E
:100A6000C80FD91F015010400115110571F7CE01B3
:100A7000DF91CF911F910F91FF90EF90DF90CF907A
:100A80000895CF93DF93EC016115710519F420E00F
:100A900030E00FC0DB010D900020E9F71197A61B95
:100AA000B70BE881F9810280F381E02DAD01099552
:100AB0009C01C901DF91CF9108954F925F927F927F
:100AC0008F929F92AF92BF92CF92DF92EF92FF925E
:100AD0000F931F93DF93CF93CDB7DEB7A1970FB6D8
:100AE000F894DEBF0FBECDBF2C01742ECB01223097
:100AF00008F42AE019A231E2C32ED12CCC0EDD1E5F
:100B0000822E9924AA24BB24672D752FA501940158
:100B10000E94F20579018A01C801B701A50194017B
:100B20000E94D305472D461B0894C108D1084A30BE
:100B300014F4405D01C0495CF6014083E114F10406
:100B40000105110521F07E2C5F2DC801DDCFC2010A
:100B5000B6010E944105A1960FB6F894DEBF0FBE04
:100B6000CDBFCF91DF911F910F91FF90EF90DF905C
:100B7000CF90BF90AF909F908F907F905F904F905D
:100B80000895DC012115310541F4ED91FC910190AE
:100B9000F081E02D642F099508950E945D05089568
:100BA0000E9441050895629FD001739FF001829FCA
:100BB000E00DF11D649FE00DF11D929FF00D839FEC
:100BC000F00D749FF00D659FF00D9927729FB00D89
:100BD000E11DF91F639FB00DE11DF91FBD01CF019C
:100BE00011240895A1E21A2EAA1BBB1BFD010DC002
:100BF000AA1FBB1FEE1FFF1FA217B307E407F507CD
:100C000020F0A21BB30BE40BF50B661F771F881FA8
:100C1000991F1A9469F760957095809590959B013E
:100C2000AC01BD01CF010895EE0FFF1F0590F491B7
:080C3000E02D0994F894FFCFB8
:100C380068656C6C6F2C20776F726C642100000003
:0E0C48000000E60117050000400014005400F3
:00000001FF
